{
  "_format": "hh-sol-artifact-1",
  "contractName": "RedGuy",
  "sourceName": "contracts/RedGuy.sol",
  "abi": [
    {
      "inputs": [],
      "stateMutability": "nonpayable",
      "type": "constructor"
    },
    {
      "anonymous": false,
      "inputs": [
        {
          "indexed": true,
          "internalType": "address",
          "name": "account",
          "type": "address"
        },
        {
          "indexed": true,
          "internalType": "address",
          "name": "operator",
          "type": "address"
        },
        {
          "indexed": false,
          "internalType": "bool",
          "name": "approved",
          "type": "bool"
        }
      ],
      "name": "ApprovalForAll",
      "type": "event"
    },
    {
      "anonymous": false,
      "inputs": [
        {
          "indexed": true,
          "internalType": "address",
          "name": "previousOwner",
          "type": "address"
        },
        {
          "indexed": true,
          "internalType": "address",
          "name": "newOwner",
          "type": "address"
        }
      ],
      "name": "OwnershipTransferred",
      "type": "event"
    },
    {
      "anonymous": false,
      "inputs": [
        {
          "indexed": true,
          "internalType": "address",
          "name": "operator",
          "type": "address"
        },
        {
          "indexed": true,
          "internalType": "address",
          "name": "from",
          "type": "address"
        },
        {
          "indexed": true,
          "internalType": "address",
          "name": "to",
          "type": "address"
        },
        {
          "indexed": false,
          "internalType": "uint256[]",
          "name": "ids",
          "type": "uint256[]"
        },
        {
          "indexed": false,
          "internalType": "uint256[]",
          "name": "values",
          "type": "uint256[]"
        }
      ],
      "name": "TransferBatch",
      "type": "event"
    },
    {
      "anonymous": false,
      "inputs": [
        {
          "indexed": true,
          "internalType": "address",
          "name": "operator",
          "type": "address"
        },
        {
          "indexed": true,
          "internalType": "address",
          "name": "from",
          "type": "address"
        },
        {
          "indexed": true,
          "internalType": "address",
          "name": "to",
          "type": "address"
        },
        {
          "indexed": false,
          "internalType": "uint256",
          "name": "id",
          "type": "uint256"
        },
        {
          "indexed": false,
          "internalType": "uint256",
          "name": "value",
          "type": "uint256"
        }
      ],
      "name": "TransferSingle",
      "type": "event"
    },
    {
      "anonymous": false,
      "inputs": [
        {
          "indexed": false,
          "internalType": "string",
          "name": "value",
          "type": "string"
        },
        {
          "indexed": true,
          "internalType": "uint256",
          "name": "id",
          "type": "uint256"
        }
      ],
      "name": "URI",
      "type": "event"
    },
    {
      "inputs": [
        {
          "internalType": "address",
          "name": "account",
          "type": "address"
        },
        {
          "internalType": "uint256",
          "name": "id",
          "type": "uint256"
        }
      ],
      "name": "balanceOf",
      "outputs": [
        {
          "internalType": "uint256",
          "name": "",
          "type": "uint256"
        }
      ],
      "stateMutability": "view",
      "type": "function"
    },
    {
      "inputs": [
        {
          "internalType": "address[]",
          "name": "accounts",
          "type": "address[]"
        },
        {
          "internalType": "uint256[]",
          "name": "ids",
          "type": "uint256[]"
        }
      ],
      "name": "balanceOfBatch",
      "outputs": [
        {
          "internalType": "uint256[]",
          "name": "",
          "type": "uint256[]"
        }
      ],
      "stateMutability": "view",
      "type": "function"
    },
    {
      "inputs": [
        {
          "internalType": "address",
          "name": "account",
          "type": "address"
        },
        {
          "internalType": "address",
          "name": "operator",
          "type": "address"
        }
      ],
      "name": "isApprovedForAll",
      "outputs": [
        {
          "internalType": "bool",
          "name": "",
          "type": "bool"
        }
      ],
      "stateMutability": "view",
      "type": "function"
    },
    {
      "inputs": [],
      "name": "maxSupply",
      "outputs": [
        {
          "internalType": "uint256",
          "name": "",
          "type": "uint256"
        }
      ],
      "stateMutability": "view",
      "type": "function"
    },
    {
      "inputs": [
        {
          "internalType": "address",
          "name": "account",
          "type": "address"
        },
        {
          "internalType": "uint256",
          "name": "id",
          "type": "uint256"
        },
        {
          "internalType": "uint256",
          "name": "amount",
          "type": "uint256"
        }
      ],
      "name": "mint",
      "outputs": [],
      "stateMutability": "payable",
      "type": "function"
    },
    {
      "inputs": [
        {
          "internalType": "address",
          "name": "to",
          "type": "address"
        },
        {
          "internalType": "uint256[]",
          "name": "ids",
          "type": "uint256[]"
        },
        {
          "internalType": "uint256[]",
          "name": "amounts",
          "type": "uint256[]"
        },
        {
          "internalType": "bytes",
          "name": "data",
          "type": "bytes"
        }
      ],
      "name": "mintBatch",
      "outputs": [],
      "stateMutability": "nonpayable",
      "type": "function"
    },
    {
      "inputs": [],
      "name": "owner",
      "outputs": [
        {
          "internalType": "address",
          "name": "",
          "type": "address"
        }
      ],
      "stateMutability": "view",
      "type": "function"
    },
    {
      "inputs": [],
      "name": "price",
      "outputs": [
        {
          "internalType": "uint256",
          "name": "",
          "type": "uint256"
        }
      ],
      "stateMutability": "view",
      "type": "function"
    },
    {
      "inputs": [],
      "name": "renounceOwnership",
      "outputs": [],
      "stateMutability": "nonpayable",
      "type": "function"
    },
    {
      "inputs": [
        {
          "internalType": "address",
          "name": "from",
          "type": "address"
        },
        {
          "internalType": "address",
          "name": "to",
          "type": "address"
        },
        {
          "internalType": "uint256[]",
          "name": "ids",
          "type": "uint256[]"
        },
        {
          "internalType": "uint256[]",
          "name": "amounts",
          "type": "uint256[]"
        },
        {
          "internalType": "bytes",
          "name": "data",
          "type": "bytes"
        }
      ],
      "name": "safeBatchTransferFrom",
      "outputs": [],
      "stateMutability": "nonpayable",
      "type": "function"
    },
    {
      "inputs": [
        {
          "internalType": "address",
          "name": "from",
          "type": "address"
        },
        {
          "internalType": "address",
          "name": "to",
          "type": "address"
        },
        {
          "internalType": "uint256",
          "name": "id",
          "type": "uint256"
        },
        {
          "internalType": "uint256",
          "name": "amount",
          "type": "uint256"
        },
        {
          "internalType": "bytes",
          "name": "data",
          "type": "bytes"
        }
      ],
      "name": "safeTransferFrom",
      "outputs": [],
      "stateMutability": "nonpayable",
      "type": "function"
    },
    {
      "inputs": [
        {
          "internalType": "address",
          "name": "operator",
          "type": "address"
        },
        {
          "internalType": "bool",
          "name": "approved",
          "type": "bool"
        }
      ],
      "name": "setApprovalForAll",
      "outputs": [],
      "stateMutability": "nonpayable",
      "type": "function"
    },
    {
      "inputs": [
        {
          "internalType": "string",
          "name": "newuri",
          "type": "string"
        }
      ],
      "name": "setURI",
      "outputs": [],
      "stateMutability": "nonpayable",
      "type": "function"
    },
    {
      "inputs": [
        {
          "internalType": "bytes4",
          "name": "interfaceId",
          "type": "bytes4"
        }
      ],
      "name": "supportsInterface",
      "outputs": [
        {
          "internalType": "bool",
          "name": "",
          "type": "bool"
        }
      ],
      "stateMutability": "view",
      "type": "function"
    },
    {
      "inputs": [
        {
          "internalType": "address",
          "name": "newOwner",
          "type": "address"
        }
      ],
      "name": "transferOwnership",
      "outputs": [],
      "stateMutability": "nonpayable",
      "type": "function"
    },
    {
      "inputs": [
        {
          "internalType": "uint256",
          "name": "tokenId",
          "type": "uint256"
        }
      ],
      "name": "uri",
      "outputs": [
        {
          "internalType": "string",
          "name": "",
          "type": "string"
        }
      ],
      "stateMutability": "view",
      "type": "function"
    }
  ],
  "bytecode": "0x6080604052600360045566038d7ea4c680006005556040518060400160405280600060ff168152602001600060ff1681525060069060026200004392919062000231565b503480156200005157600080fd5b506040518060400160405280601381526020017f697066733a2f2f626c6168626c61687b69647d0000000000000000000000000081525062000099816200014760201b60201c565b50620000ba620000ae6200016360201b60201c565b6200016b60201b60201c565b60405180606001604052806037815260200162003ab360379139600760008081526020019081526020016000209080519060200190620000fc92919062000288565b5060405180606001604052806037815260200162003aea60379139600760006001815260200190815260200160002090805190602001906200014092919062000288565b506200039d565b80600290805190602001906200015f92919062000288565b5050565b600033905090565b6000600360009054906101000a900473ffffffffffffffffffffffffffffffffffffffff16905081600360006101000a81548173ffffffffffffffffffffffffffffffffffffffff021916908373ffffffffffffffffffffffffffffffffffffffff1602179055508173ffffffffffffffffffffffffffffffffffffffff168173ffffffffffffffffffffffffffffffffffffffff167f8be0079c531659141344cd1fd0a4f28419497f9722a3daafe3b4186f6b6457e060405160405180910390a35050565b82805482825590600052602060002090810192821562000275579160200282015b8281111562000274578251829060ff1690559160200191906001019062000252565b5b50905062000284919062000319565b5090565b828054620002969062000338565b90600052602060002090601f016020900481019282620002ba576000855562000306565b82601f10620002d557805160ff191683800117855562000306565b8280016001018555821562000306579182015b8281111562000305578251825591602001919060010190620002e8565b5b50905062000315919062000319565b5090565b5b80821115620003345760008160009055506001016200031a565b5090565b600060028204905060018216806200035157607f821691505b602082108114156200036857620003676200036e565b5b50919050565b7f4e487b7100000000000000000000000000000000000000000000000000000000600052602260045260246000fd5b61370680620003ad6000396000f3fe6080604052600436106100f25760003560e01c8063715018a61161008a578063d5abeb0111610059578063d5abeb0114610318578063e985e9c514610343578063f242432a14610380578063f2fde38b146103a9576100f2565b8063715018a6146102825780638da5cb5b14610299578063a035b1fe146102c4578063a22cb465146102ef576100f2565b8063156e29f6116100c6578063156e29f6146101d75780631f7fdffa146101f35780632eb2c2d61461021c5780634e1273f414610245576100f2565b8062fdd58e146100f757806301ffc9a71461013457806302fe5305146101715780630e89341c1461019a575b600080fd5b34801561010357600080fd5b5061011e600480360381019061011991906124cd565b6103d2565b60405161012b9190612d47565b60405180910390f35b34801561014057600080fd5b5061015b600480360381019061015691906125c4565b61049b565b6040516101689190612b0a565b60405180910390f35b34801561017d57600080fd5b5061019860048036038101906101939190612616565b61057d565b005b3480156101a657600080fd5b506101c160048036038101906101bc9190612657565b610605565b6040516101ce9190612b25565b60405180910390f35b6101f160048036038101906101ec9190612509565b6106aa565b005b3480156101ff57600080fd5b5061021a600480360381019061021591906123e6565b6107ea565b005b34801561022857600080fd5b50610243600480360381019061023e9190612298565b610878565b005b34801561025157600080fd5b5061026c60048036038101906102679190612558565b610919565b6040516102799190612ab1565b60405180910390f35b34801561028e57600080fd5b50610297610aca565b005b3480156102a557600080fd5b506102ae610b52565b6040516102bb91906129d4565b60405180910390f35b3480156102d057600080fd5b506102d9610b7c565b6040516102e69190612d47565b60405180910390f35b3480156102fb57600080fd5b5061031660048036038101906103119190612491565b610b82565b005b34801561032457600080fd5b5061032d610b98565b60405161033a9190612d47565b60405180910390f35b34801561034f57600080fd5b5061036a6004803603810190610365919061225c565b610b9e565b6040516103779190612b0a565b60405180910390f35b34801561038c57600080fd5b506103a760048036038101906103a29190612357565b610c32565b005b3480156103b557600080fd5b506103d060048036038101906103cb9190612233565b610cd3565b005b60008073ffffffffffffffffffffffffffffffffffffffff168373ffffffffffffffffffffffffffffffffffffffff161415610443576040517f08c379a000000000000000000000000000000000000000000000000000000000815260040161043a90612ba7565b60405180910390fd5b60008083815260200190815260200160002060008473ffffffffffffffffffffffffffffffffffffffff1673ffffffffffffffffffffffffffffffffffffffff16815260200190815260200160002054905092915050565b60007fd9b67a26000000000000000000000000000000000000000000000000000000007bffffffffffffffffffffffffffffffffffffffffffffffffffffffff1916827bffffffffffffffffffffffffffffffffffffffffffffffffffffffff1916148061056657507f0e89341c000000000000000000000000000000000000000000000000000000007bffffffffffffffffffffffffffffffffffffffffffffffffffffffff1916827bffffffffffffffffffffffffffffffffffffffffffffffffffffffff1916145b80610576575061057582610dcb565b5b9050919050565b610585610e35565b73ffffffffffffffffffffffffffffffffffffffff166105a3610b52565b73ffffffffffffffffffffffffffffffffffffffff16146105f9576040517f08c379a00000000000000000000000000000000000000000000000000000000081526004016105f090612c87565b60405180910390fd5b61060281610e3d565b50565b606060076000838152602001908152602001600020805461062590612fe7565b80601f016020809104026020016040519081016040528092919081815260200182805461065190612fe7565b801561069e5780601f106106735761010080835404028352916020019161069e565b820191906000526020600020905b81548152906001019060200180831161068157829003601f168201915b50505050509050919050565b6005543410156106ef576040517f08c379a00000000000000000000000000000000000000000000000000000000081526004016106e690612ca7565b60405180910390fd5b6006805490508210610736576040517f08c379a000000000000000000000000000000000000000000000000000000000815260040161072d90612b87565b60405180910390fd5b60045460068381548110610773577f4e487b7100000000000000000000000000000000000000000000000000000000600052603260045260246000fd5b9060005260206000200154826107899190612edb565b11156107ca576040517f08c379a00000000000000000000000000000000000000000000000000000000081526004016107c190612c67565b60405180910390fd5b6107e583838360405180602001604052806000815250610e57565b505050565b6107f2610e35565b73ffffffffffffffffffffffffffffffffffffffff16610810610b52565b73ffffffffffffffffffffffffffffffffffffffff1614610866576040517f08c379a000000000000000000000000000000000000000000000000000000000815260040161085d90612c87565b60405180910390fd5b61087284848484610fed565b50505050565b610880610e35565b73ffffffffffffffffffffffffffffffffffffffff168573ffffffffffffffffffffffffffffffffffffffff1614806108c657506108c5856108c0610e35565b610b9e565b5b610905576040517f08c379a00000000000000000000000000000000000000000000000000000000081526004016108fc90612c27565b60405180910390fd5b6109128585858585611257565b5050505050565b6060815183511461095f576040517f08c379a000000000000000000000000000000000000000000000000000000000815260040161095690612ce7565b60405180910390fd5b6000835167ffffffffffffffff8111156109a2577f4e487b7100000000000000000000000000000000000000000000000000000000600052604160045260246000fd5b6040519080825280602002602001820160405280156109d05781602001602082028036833780820191505090505b50905060005b8451811015610abf57610a69858281518110610a1b577f4e487b7100000000000000000000000000000000000000000000000000000000600052603260045260246000fd5b6020026020010151858381518110610a5c577f4e487b7100000000000000000000000000000000000000000000000000000000600052603260045260246000fd5b60200260200101516103d2565b828281518110610aa2577f4e487b7100000000000000000000000000000000000000000000000000000000600052603260045260246000fd5b60200260200101818152505080610ab89061304a565b90506109d6565b508091505092915050565b610ad2610e35565b73ffffffffffffffffffffffffffffffffffffffff16610af0610b52565b73ffffffffffffffffffffffffffffffffffffffff1614610b46576040517f08c379a0000000000000000000000000000000000000000000000000000000008152600401610b3d90612c87565b60405180910390fd5b610b5060006115b7565b565b6000600360009054906101000a900473ffffffffffffffffffffffffffffffffffffffff16905090565b60055481565b610b94610b8d610e35565b838361167d565b5050565b60045481565b6000600160008473ffffffffffffffffffffffffffffffffffffffff1673ffffffffffffffffffffffffffffffffffffffff16815260200190815260200160002060008373ffffffffffffffffffffffffffffffffffffffff1673ffffffffffffffffffffffffffffffffffffffff16815260200190815260200160002060009054906101000a900460ff16905092915050565b610c3a610e35565b73ffffffffffffffffffffffffffffffffffffffff168573ffffffffffffffffffffffffffffffffffffffff161480610c805750610c7f85610c7a610e35565b610b9e565b5b610cbf576040517f08c379a0000000000000000000000000000000000000000000000000000000008152600401610cb690612be7565b60405180910390fd5b610ccc85858585856117ea565b5050505050565b610cdb610e35565b73ffffffffffffffffffffffffffffffffffffffff16610cf9610b52565b73ffffffffffffffffffffffffffffffffffffffff1614610d4f576040517f08c379a0000000000000000000000000000000000000000000000000000000008152600401610d4690612c87565b60405180910390fd5b600073ffffffffffffffffffffffffffffffffffffffff168173ffffffffffffffffffffffffffffffffffffffff161415610dbf576040517f08c379a0000000000000000000000000000000000000000000000000000000008152600401610db690612bc7565b60405180910390fd5b610dc8816115b7565b50565b60007f01ffc9a7000000000000000000000000000000000000000000000000000000007bffffffffffffffffffffffffffffffffffffffffffffffffffffffff1916827bffffffffffffffffffffffffffffffffffffffffffffffffffffffff1916149050919050565b600033905090565b8060029080519060200190610e53929190611f2b565b5050565b600073ffffffffffffffffffffffffffffffffffffffff168473ffffffffffffffffffffffffffffffffffffffff161415610ec7576040517f08c379a0000000000000000000000000000000000000000000000000000000008152600401610ebe90612d27565b60405180910390fd5b6000610ed1610e35565b9050610ef281600087610ee388611a6c565b610eec88611a6c565b87611b32565b8260008086815260200190815260200160002060008773ffffffffffffffffffffffffffffffffffffffff1673ffffffffffffffffffffffffffffffffffffffff1681526020019081526020016000206000828254610f519190612edb565b925050819055508473ffffffffffffffffffffffffffffffffffffffff16600073ffffffffffffffffffffffffffffffffffffffff168273ffffffffffffffffffffffffffffffffffffffff167fc3d58168c5ae7397731d063d5bbf3d657854427343f4c083240f7aacaa2d0f628787604051610fcf929190612d62565b60405180910390a4610fe681600087878787611b3a565b5050505050565b600073ffffffffffffffffffffffffffffffffffffffff168473ffffffffffffffffffffffffffffffffffffffff16141561105d576040517f08c379a000000000000000000000000000000000000000000000000000000000815260040161105490612d27565b60405180910390fd5b81518351146110a1576040517f08c379a000000000000000000000000000000000000000000000000000000000815260040161109890612d07565b60405180910390fd5b60006110ab610e35565b90506110bc81600087878787611b32565b60005b84518110156111c157838181518110611101577f4e487b7100000000000000000000000000000000000000000000000000000000600052603260045260246000fd5b6020026020010151600080878481518110611145577f4e487b7100000000000000000000000000000000000000000000000000000000600052603260045260246000fd5b6020026020010151815260200190815260200160002060008873ffffffffffffffffffffffffffffffffffffffff1673ffffffffffffffffffffffffffffffffffffffff16815260200190815260200160002060008282546111a79190612edb565b9250508190555080806111b99061304a565b9150506110bf565b508473ffffffffffffffffffffffffffffffffffffffff16600073ffffffffffffffffffffffffffffffffffffffff168273ffffffffffffffffffffffffffffffffffffffff167f4a39dc06d4c0dbc64b70af90fd698a233a518aa5d07e595d983b8c0526c8f7fb8787604051611239929190612ad3565b60405180910390a461125081600087878787611d21565b5050505050565b815183511461129b576040517f08c379a000000000000000000000000000000000000000000000000000000000815260040161129290612d07565b60405180910390fd5b600073ffffffffffffffffffffffffffffffffffffffff168473ffffffffffffffffffffffffffffffffffffffff16141561130b576040517f08c379a000000000000000000000000000000000000000000000000000000000815260040161130290612c07565b60405180910390fd5b6000611315610e35565b9050611325818787878787611b32565b60005b845181101561152257600085828151811061136c577f4e487b7100000000000000000000000000000000000000000000000000000000600052603260045260246000fd5b6020026020010151905060008583815181106113b1577f4e487b7100000000000000000000000000000000000000000000000000000000600052603260045260246000fd5b60200260200101519050600080600084815260200190815260200160002060008b73ffffffffffffffffffffffffffffffffffffffff1673ffffffffffffffffffffffffffffffffffffffff16815260200190815260200160002054905081811015611452576040517f08c379a000000000000000000000000000000000000000000000000000000000815260040161144990612c47565b60405180910390fd5b81810360008085815260200190815260200160002060008c73ffffffffffffffffffffffffffffffffffffffff1673ffffffffffffffffffffffffffffffffffffffff168152602001908152602001600020819055508160008085815260200190815260200160002060008b73ffffffffffffffffffffffffffffffffffffffff1673ffffffffffffffffffffffffffffffffffffffff16815260200190815260200160002060008282546115079190612edb565b925050819055505050508061151b9061304a565b9050611328565b508473ffffffffffffffffffffffffffffffffffffffff168673ffffffffffffffffffffffffffffffffffffffff168273ffffffffffffffffffffffffffffffffffffffff167f4a39dc06d4c0dbc64b70af90fd698a233a518aa5d07e595d983b8c0526c8f7fb8787604051611599929190612ad3565b60405180910390a46115af818787878787611d21565b505050505050565b6000600360009054906101000a900473ffffffffffffffffffffffffffffffffffffffff16905081600360006101000a81548173ffffffffffffffffffffffffffffffffffffffff021916908373ffffffffffffffffffffffffffffffffffffffff1602179055508173ffffffffffffffffffffffffffffffffffffffff168173ffffffffffffffffffffffffffffffffffffffff167f8be0079c531659141344cd1fd0a4f28419497f9722a3daafe3b4186f6b6457e060405160405180910390a35050565b8173ffffffffffffffffffffffffffffffffffffffff168373ffffffffffffffffffffffffffffffffffffffff1614156116ec576040517f08c379a00000000000000000000000000000000000000000000000000000000081526004016116e390612cc7565b60405180910390fd5b80600160008573ffffffffffffffffffffffffffffffffffffffff1673ffffffffffffffffffffffffffffffffffffffff16815260200190815260200160002060008473ffffffffffffffffffffffffffffffffffffffff1673ffffffffffffffffffffffffffffffffffffffff16815260200190815260200160002060006101000a81548160ff0219169083151502179055508173ffffffffffffffffffffffffffffffffffffffff168373ffffffffffffffffffffffffffffffffffffffff167f17307eab39ab6107e8899845ad3d59bd9653f200f220920489ca2b5937696c31836040516117dd9190612b0a565b60405180910390a3505050565b600073ffffffffffffffffffffffffffffffffffffffff168473ffffffffffffffffffffffffffffffffffffffff16141561185a576040517f08c379a000000000000000000000000000000000000000000000000000000000815260040161185190612c07565b60405180910390fd5b6000611864610e35565b905061188481878761187588611a6c565b61187e88611a6c565b87611b32565b600080600086815260200190815260200160002060008873ffffffffffffffffffffffffffffffffffffffff1673ffffffffffffffffffffffffffffffffffffffff1681526020019081526020016000205490508381101561191b576040517f08c379a000000000000000000000000000000000000000000000000000000000815260040161191290612c47565b60405180910390fd5b83810360008087815260200190815260200160002060008973ffffffffffffffffffffffffffffffffffffffff1673ffffffffffffffffffffffffffffffffffffffff168152602001908152602001600020819055508360008087815260200190815260200160002060008873ffffffffffffffffffffffffffffffffffffffff1673ffffffffffffffffffffffffffffffffffffffff16815260200190815260200160002060008282546119d09190612edb565b925050819055508573ffffffffffffffffffffffffffffffffffffffff168773ffffffffffffffffffffffffffffffffffffffff168373ffffffffffffffffffffffffffffffffffffffff167fc3d58168c5ae7397731d063d5bbf3d657854427343f4c083240f7aacaa2d0f628888604051611a4d929190612d62565b60405180910390a4611a63828888888888611b3a565b50505050505050565b60606000600167ffffffffffffffff811115611ab1577f4e487b7100000000000000000000000000000000000000000000000000000000600052604160045260246000fd5b604051908082528060200260200182016040528015611adf5781602001602082028036833780820191505090505b5090508281600081518110611b1d577f4e487b7100000000000000000000000000000000000000000000000000000000600052603260045260246000fd5b60200260200101818152505080915050919050565b505050505050565b611b598473ffffffffffffffffffffffffffffffffffffffff16611f08565b15611d19578373ffffffffffffffffffffffffffffffffffffffff1663f23a6e6187878686866040518663ffffffff1660e01b8152600401611b9f959493929190612a57565b602060405180830381600087803b158015611bb957600080fd5b505af1925050508015611bea57506040513d601f19601f82011682018060405250810190611be791906125ed565b60015b611c9057611bf6613120565b806308c379a01415611c535750611c0b6135de565b80611c165750611c55565b806040517f08c379a0000000000000000000000000000000000000000000000000000000008152600401611c4a9190612b25565b60405180910390fd5b505b6040517f08c379a0000000000000000000000000000000000000000000000000000000008152600401611c8790612b47565b60405180910390fd5b63f23a6e6160e01b7bffffffffffffffffffffffffffffffffffffffffffffffffffffffff1916817bffffffffffffffffffffffffffffffffffffffffffffffffffffffff191614611d17576040517f08c379a0000000000000000000000000000000000000000000000000000000008152600401611d0e90612b67565b60405180910390fd5b505b505050505050565b611d408473ffffffffffffffffffffffffffffffffffffffff16611f08565b15611f00578373ffffffffffffffffffffffffffffffffffffffff1663bc197c8187878686866040518663ffffffff1660e01b8152600401611d869594939291906129ef565b602060405180830381600087803b158015611da057600080fd5b505af1925050508015611dd157506040513d601f19601f82011682018060405250810190611dce91906125ed565b60015b611e7757611ddd613120565b806308c379a01415611e3a5750611df26135de565b80611dfd5750611e3c565b806040517f08c379a0000000000000000000000000000000000000000000000000000000008152600401611e319190612b25565b60405180910390fd5b505b6040517f08c379a0000000000000000000000000000000000000000000000000000000008152600401611e6e90612b47565b60405180910390fd5b63bc197c8160e01b7bffffffffffffffffffffffffffffffffffffffffffffffffffffffff1916817bffffffffffffffffffffffffffffffffffffffffffffffffffffffff191614611efe576040517f08c379a0000000000000000000000000000000000000000000000000000000008152600401611ef590612b67565b60405180910390fd5b505b505050505050565b6000808273ffffffffffffffffffffffffffffffffffffffff163b119050919050565b828054611f3790612fe7565b90600052602060002090601f016020900481019282611f595760008555611fa0565b82601f10611f7257805160ff1916838001178555611fa0565b82800160010185558215611fa0579182015b82811115611f9f578251825591602001919060010190611f84565b5b509050611fad9190611fb1565b5090565b5b80821115611fca576000816000905550600101611fb2565b5090565b6000611fe1611fdc84612db0565b612d8b565b9050808382526020820190508285602086028201111561200057600080fd5b60005b8581101561203057816120168882612122565b845260208401935060208301925050600181019050612003565b5050509392505050565b600061204d61204884612ddc565b612d8b565b9050808382526020820190508285602086028201111561206c57600080fd5b60005b8581101561209c5781612082888261221e565b84526020840193506020830192505060018101905061206f565b5050509392505050565b60006120b96120b484612e08565b612d8b565b9050828152602081018484840111156120d157600080fd5b6120dc848285612fa5565b509392505050565b60006120f76120f284612e39565b612d8b565b90508281526020810184848401111561210f57600080fd5b61211a848285612fa5565b509392505050565b60008135905061213181613674565b92915050565b600082601f83011261214857600080fd5b8135612158848260208601611fce565b91505092915050565b600082601f83011261217257600080fd5b813561218284826020860161203a565b91505092915050565b60008135905061219a8161368b565b92915050565b6000813590506121af816136a2565b92915050565b6000815190506121c4816136a2565b92915050565b600082601f8301126121db57600080fd5b81356121eb8482602086016120a6565b91505092915050565b600082601f83011261220557600080fd5b81356122158482602086016120e4565b91505092915050565b60008135905061222d816136b9565b92915050565b60006020828403121561224557600080fd5b600061225384828501612122565b91505092915050565b6000806040838503121561226f57600080fd5b600061227d85828601612122565b925050602061228e85828601612122565b9150509250929050565b600080600080600060a086880312156122b057600080fd5b60006122be88828901612122565b95505060206122cf88828901612122565b945050604086013567ffffffffffffffff8111156122ec57600080fd5b6122f888828901612161565b935050606086013567ffffffffffffffff81111561231557600080fd5b61232188828901612161565b925050608086013567ffffffffffffffff81111561233e57600080fd5b61234a888289016121ca565b9150509295509295909350565b600080600080600060a0868803121561236f57600080fd5b600061237d88828901612122565b955050602061238e88828901612122565b945050604061239f8882890161221e565b93505060606123b08882890161221e565b925050608086013567ffffffffffffffff8111156123cd57600080fd5b6123d9888289016121ca565b9150509295509295909350565b600080600080608085870312156123fc57600080fd5b600061240a87828801612122565b945050602085013567ffffffffffffffff81111561242757600080fd5b61243387828801612161565b935050604085013567ffffffffffffffff81111561245057600080fd5b61245c87828801612161565b925050606085013567ffffffffffffffff81111561247957600080fd5b612485878288016121ca565b91505092959194509250565b600080604083850312156124a457600080fd5b60006124b285828601612122565b92505060206124c38582860161218b565b9150509250929050565b600080604083850312156124e057600080fd5b60006124ee85828601612122565b92505060206124ff8582860161221e565b9150509250929050565b60008060006060848603121561251e57600080fd5b600061252c86828701612122565b935050602061253d8682870161221e565b925050604061254e8682870161221e565b9150509250925092565b6000806040838503121561256b57600080fd5b600083013567ffffffffffffffff81111561258557600080fd5b61259185828601612137565b925050602083013567ffffffffffffffff8111156125ae57600080fd5b6125ba85828601612161565b9150509250929050565b6000602082840312156125d657600080fd5b60006125e4848285016121a0565b91505092915050565b6000602082840312156125ff57600080fd5b600061260d848285016121b5565b91505092915050565b60006020828403121561262857600080fd5b600082013567ffffffffffffffff81111561264257600080fd5b61264e848285016121f4565b91505092915050565b60006020828403121561266957600080fd5b60006126778482850161221e565b91505092915050565b600061268c83836129b6565b60208301905092915050565b6126a181612f31565b82525050565b60006126b282612e7a565b6126bc8185612ea8565b93506126c783612e6a565b8060005b838110156126f85781516126df8882612680565b97506126ea83612e9b565b9250506001810190506126cb565b5085935050505092915050565b61270e81612f43565b82525050565b600061271f82612e85565b6127298185612eb9565b9350612739818560208601612fb4565b61274281613142565b840191505092915050565b600061275882612e90565b6127628185612eca565b9350612772818560208601612fb4565b61277b81613142565b840191505092915050565b6000612793603483612eca565b915061279e82613160565b604082019050919050565b60006127b6602883612eca565b91506127c1826131af565b604082019050919050565b60006127d9601683612eca565b91506127e4826131fe565b602082019050919050565b60006127fc602b83612eca565b915061280782613227565b604082019050919050565b600061281f602683612eca565b915061282a82613276565b604082019050919050565b6000612842602983612eca565b915061284d826132c5565b604082019050919050565b6000612865602583612eca565b915061287082613314565b604082019050919050565b6000612888603283612eca565b915061289382613363565b604082019050919050565b60006128ab602a83612eca565b91506128b6826133b2565b604082019050919050565b60006128ce602b83612eca565b91506128d982613401565b604082019050919050565b60006128f1602083612eca565b91506128fc82613450565b602082019050919050565b6000612914601583612eca565b915061291f82613479565b602082019050919050565b6000612937602983612eca565b9150612942826134a2565b604082019050919050565b600061295a602983612eca565b9150612965826134f1565b604082019050919050565b600061297d602883612eca565b915061298882613540565b604082019050919050565b60006129a0602183612eca565b91506129ab8261358f565b604082019050919050565b6129bf81612f9b565b82525050565b6129ce81612f9b565b82525050565b60006020820190506129e96000830184612698565b92915050565b600060a082019050612a046000830188612698565b612a116020830187612698565b8181036040830152612a2381866126a7565b90508181036060830152612a3781856126a7565b90508181036080830152612a4b8184612714565b90509695505050505050565b600060a082019050612a6c6000830188612698565b612a796020830187612698565b612a8660408301866129c5565b612a9360608301856129c5565b8181036080830152612aa58184612714565b90509695505050505050565b60006020820190508181036000830152612acb81846126a7565b905092915050565b60006040820190508181036000830152612aed81856126a7565b90508181036020830152612b0181846126a7565b90509392505050565b6000602082019050612b1f6000830184612705565b92915050565b60006020820190508181036000830152612b3f818461274d565b905092915050565b60006020820190508181036000830152612b6081612786565b9050919050565b60006020820190508181036000830152612b80816127a9565b9050919050565b60006020820190508181036000830152612ba0816127cc565b9050919050565b60006020820190508181036000830152612bc0816127ef565b9050919050565b60006020820190508181036000830152612be081612812565b9050919050565b60006020820190508181036000830152612c0081612835565b9050919050565b60006020820190508181036000830152612c2081612858565b9050919050565b60006020820190508181036000830152612c408161287b565b9050919050565b60006020820190508181036000830152612c608161289e565b9050919050565b60006020820190508181036000830152612c80816128c1565b9050919050565b60006020820190508181036000830152612ca0816128e4565b9050919050565b60006020820190508181036000830152612cc081612907565b9050919050565b60006020820190508181036000830152612ce08161292a565b9050919050565b60006020820190508181036000830152612d008161294d565b9050919050565b60006020820190508181036000830152612d2081612970565b9050919050565b60006020820190508181036000830152612d4081612993565b9050919050565b6000602082019050612d5c60008301846129c5565b92915050565b6000604082019050612d7760008301856129c5565b612d8460208301846129c5565b9392505050565b6000612d95612da6565b9050612da18282613019565b919050565b6000604051905090565b600067ffffffffffffffff821115612dcb57612dca6130f1565b5b602082029050602081019050919050565b600067ffffffffffffffff821115612df757612df66130f1565b5b602082029050602081019050919050565b600067ffffffffffffffff821115612e2357612e226130f1565b5b612e2c82613142565b9050602081019050919050565b600067ffffffffffffffff821115612e5457612e536130f1565b5b612e5d82613142565b9050602081019050919050565b6000819050602082019050919050565b600081519050919050565b600081519050919050565b600081519050919050565b6000602082019050919050565b600082825260208201905092915050565b600082825260208201905092915050565b600082825260208201905092915050565b6000612ee682612f9b565b9150612ef183612f9b565b9250827fffffffffffffffffffffffffffffffffffffffffffffffffffffffffffffffff03821115612f2657612f25613093565b5b828201905092915050565b6000612f3c82612f7b565b9050919050565b60008115159050919050565b60007fffffffff0000000000000000000000000000000000000000000000000000000082169050919050565b600073ffffffffffffffffffffffffffffffffffffffff82169050919050565b6000819050919050565b82818337600083830152505050565b60005b83811015612fd2578082015181840152602081019050612fb7565b83811115612fe1576000848401525b50505050565b60006002820490506001821680612fff57607f821691505b60208210811415613013576130126130c2565b5b50919050565b61302282613142565b810181811067ffffffffffffffff82111715613041576130406130f1565b5b80604052505050565b600061305582612f9b565b91507fffffffffffffffffffffffffffffffffffffffffffffffffffffffffffffffff82141561308857613087613093565b5b600182019050919050565b7f4e487b7100000000000000000000000000000000000000000000000000000000600052601160045260246000fd5b7f4e487b7100000000000000000000000000000000000000000000000000000000600052602260045260246000fd5b7f4e487b7100000000000000000000000000000000000000000000000000000000600052604160045260246000fd5b600060033d111561313f5760046000803e61313c600051613153565b90505b90565b6000601f19601f8301169050919050565b60008160e01c9050919050565b7f455243313135353a207472616e7366657220746f206e6f6e204552433131353560008201527f526563656976657220696d706c656d656e746572000000000000000000000000602082015250565b7f455243313135353a204552433131353552656365697665722072656a6563746560008201527f6420746f6b656e73000000000000000000000000000000000000000000000000602082015250565b7f7468617420696420646f6573206e6f7420657869737400000000000000000000600082015250565b7f455243313135353a2062616c616e636520717565727920666f7220746865207a60008201527f65726f2061646472657373000000000000000000000000000000000000000000602082015250565b7f4f776e61626c653a206e6577206f776e657220697320746865207a65726f206160008201527f6464726573730000000000000000000000000000000000000000000000000000602082015250565b7f455243313135353a2063616c6c6572206973206e6f74206f776e6572206e6f7260008201527f20617070726f7665640000000000000000000000000000000000000000000000602082015250565b7f455243313135353a207472616e7366657220746f20746865207a65726f20616460008201527f6472657373000000000000000000000000000000000000000000000000000000602082015250565b7f455243313135353a207472616e736665722063616c6c6572206973206e6f742060008201527f6f776e6572206e6f7220617070726f7665640000000000000000000000000000602082015250565b7f455243313135353a20696e73756666696369656e742062616c616e636520666f60008201527f72207472616e7366657200000000000000000000000000000000000000000000602082015250565b7f6e6f7420656e6f75676820746f6b656e73206c65667420666f7220746869732060008201527f7472616e73616374696f6e000000000000000000000000000000000000000000602082015250565b7f4f776e61626c653a2063616c6c6572206973206e6f7420746865206f776e6572600082015250565b7f6e6f7420656e6f7567682065746865722073656e740000000000000000000000600082015250565b7f455243313135353a2073657474696e6720617070726f76616c2073746174757360008201527f20666f722073656c660000000000000000000000000000000000000000000000602082015250565b7f455243313135353a206163636f756e747320616e6420696473206c656e67746860008201527f206d69736d617463680000000000000000000000000000000000000000000000602082015250565b7f455243313135353a2069647320616e6420616d6f756e7473206c656e6774682060008201527f6d69736d61746368000000000000000000000000000000000000000000000000602082015250565b7f455243313135353a206d696e7420746f20746865207a65726f2061646472657360008201527f7300000000000000000000000000000000000000000000000000000000000000602082015250565b600060443d10156135ee57613671565b6135f6612da6565b60043d036004823e80513d602482011167ffffffffffffffff8211171561361e575050613671565b808201805167ffffffffffffffff81111561363c5750505050613671565b80602083010160043d038501811115613659575050505050613671565b61366882602001850186613019565b82955050505050505b90565b61367d81612f31565b811461368857600080fd5b50565b61369481612f43565b811461369f57600080fd5b50565b6136ab81612f4f565b81146136b657600080fd5b50565b6136c281612f9b565b81146136cd57600080fd5b5056fea2646970667358221220d3b97225409cd788f20cafb655ae5707bac7e657a4f54399daa541cf28ba635964736f6c63430008040033697066733a2f2f516d656f72514278576772365635726a33674246446d386376785a484a75506645617935717766385962685170632f31697066733a2f2f516d656f72514278576772365635726a33674246446d386376785a484a75506645617935717766385962685170632f34",
  "linkReferences": {},
  "deployedLinkReferences": {}
}